{
  "_format": "hh3-artifact-1",
  "contractName": "BookmarkCT",
  "sourceName": "contracts/BookmarkCT.sol",
  "abi": [
    {
      "anonymous": false,
      "inputs": [
        {
          "indexed": false,
          "internalType": "uint256",
          "name": "id",
          "type": "uint256"
        },
        {
          "indexed": false,
          "internalType": "address",
          "name": "owner",
          "type": "address"
        },
        {
          "indexed": false,
          "internalType": "string",
          "name": "sourceUrl",
          "type": "string"
        },
        {
          "indexed": false,
          "internalType": "bytes32",
          "name": "summaryHash",
          "type": "bytes32"
        },
        {
          "indexed": false,
          "internalType": "string",
          "name": "summaryPreview",
          "type": "string"
        },
        {
          "indexed": false,
          "internalType": "uint256",
          "name": "createdAt",
          "type": "uint256"
        }
      ],
      "name": "BookmarkCreated",
      "type": "event"
    },
    {
      "inputs": [],
      "name": "count",
      "outputs": [
        {
          "internalType": "uint256",
          "name": "",
          "type": "uint256"
        }
      ],
      "stateMutability": "view",
      "type": "function"
    },
    {
      "inputs": [
        {
          "internalType": "string",
          "name": "sourceUrl",
          "type": "string"
        },
        {
          "internalType": "bytes32",
          "name": "summaryHash",
          "type": "bytes32"
        },
        {
          "internalType": "string",
          "name": "summaryPreview",
          "type": "string"
        }
      ],
      "name": "createBookmark",
      "outputs": [],
      "stateMutability": "nonpayable",
      "type": "function"
    },
    {
      "inputs": [
        {
          "internalType": "uint256",
          "name": "id",
          "type": "uint256"
        }
      ],
      "name": "getBookmark",
      "outputs": [
        {
          "components": [
            {
              "internalType": "address",
              "name": "owner",
              "type": "address"
            },
            {
              "internalType": "string",
              "name": "sourceUrl",
              "type": "string"
            },
            {
              "internalType": "bytes32",
              "name": "summaryHash",
              "type": "bytes32"
            },
            {
              "internalType": "string",
              "name": "summaryPreview",
              "type": "string"
            },
            {
              "internalType": "uint256",
              "name": "createdAt",
              "type": "uint256"
            }
          ],
          "internalType": "struct BookmarkCT.Bookmark",
          "name": "",
          "type": "tuple"
        }
      ],
      "stateMutability": "view",
      "type": "function"
    }
  ],
  "bytecode": "0x608060405234801561000f575f80fd5b50610db28061001d5f395ff3fe608060405234801561000f575f80fd5b506004361061003f575f3560e01c806306661abd146100435780630775a99d14610061578063c3882fe914610091575b5f80fd5b61004b6100ad565b6040516100589190610534565b60405180910390f35b61007b6004803603810190610076919061057f565b6100b8565b6040516100889190610714565b60405180910390f35b6100ab60048036038101906100a691906107bf565b6102bf565b005b5f8080549050905090565b6100c06104d7565b5f805490508210610106576040517f08c379a00000000000000000000000000000000000000000000000000000000081526004016100fd906108aa565b60405180910390fd5b5f8281548110610119576101186108c8565b5b905f5260205f2090600502016040518060a00160405290815f82015f9054906101000a900473ffffffffffffffffffffffffffffffffffffffff1673ffffffffffffffffffffffffffffffffffffffff1673ffffffffffffffffffffffffffffffffffffffff16815260200160018201805461019490610922565b80601f01602080910402602001604051908101604052809291908181526020018280546101c090610922565b801561020b5780601f106101e25761010080835404028352916020019161020b565b820191905f5260205f20905b8154815290600101906020018083116101ee57829003601f168201915b505050505081526020016002820154815260200160038201805461022e90610922565b80601f016020809104026020016040519081016040528092919081815260200182805461025a90610922565b80156102a55780601f1061027c576101008083540402835291602001916102a5565b820191905f5260205f20905b81548152906001019060200180831161028857829003601f168201915b505050505081526020016004820154815250509050919050565b60c8828290501115610306576040517f08c379a00000000000000000000000000000000000000000000000000000000081526004016102fd9061099c565b60405180910390fd5b5f6040518060a001604052803373ffffffffffffffffffffffffffffffffffffffff16815260200187878080601f0160208091040260200160405190810160405280939291908181526020018383808284375f81840152601f19601f82011690508083019250505050505050815260200185815260200184848080601f0160208091040260200160405190810160405280939291908181526020018383808284375f81840152601f19601f8201169050808301925050505050505081526020014281525090505f81908060018154018082558091505060019003905f5260205f2090600502015f909190919091505f820151815f015f6101000a81548173ffffffffffffffffffffffffffffffffffffffff021916908373ffffffffffffffffffffffffffffffffffffffff160217905550602082015181600101908161044d9190610b84565b5060408201518160020155606082015181600301908161046d9190610b84565b506080820151816004015550507f54e1aa8f648a31c71ad60458330cfb796f55f893b358db17ed99a8b69759c3bc60015f805490506104ac9190610c80565b338888888888426040516104c7989796959493929190610d0b565b60405180910390a1505050505050565b6040518060a001604052805f73ffffffffffffffffffffffffffffffffffffffff168152602001606081526020015f8019168152602001606081526020015f81525090565b5f819050919050565b61052e8161051c565b82525050565b5f6020820190506105475f830184610525565b92915050565b5f80fd5b5f80fd5b61055e8161051c565b8114610568575f80fd5b50565b5f8135905061057981610555565b92915050565b5f602082840312156105945761059361054d565b5b5f6105a18482850161056b565b91505092915050565b5f73ffffffffffffffffffffffffffffffffffffffff82169050919050565b5f6105d3826105aa565b9050919050565b6105e3816105c9565b82525050565b5f81519050919050565b5f82825260208201905092915050565b5f5b83811015610620578082015181840152602081019050610605565b5f8484015250505050565b5f601f19601f8301169050919050565b5f610645826105e9565b61064f81856105f3565b935061065f818560208601610603565b6106688161062b565b840191505092915050565b5f819050919050565b61068581610673565b82525050565b6106948161051c565b82525050565b5f60a083015f8301516106af5f8601826105da565b50602083015184820360208601526106c7828261063b565b91505060408301516106dc604086018261067c565b50606083015184820360608601526106f4828261063b565b9150506080830151610709608086018261068b565b508091505092915050565b5f6020820190508181035f83015261072c818461069a565b905092915050565b5f80fd5b5f80fd5b5f80fd5b5f8083601f84011261075557610754610734565b5b8235905067ffffffffffffffff81111561077257610771610738565b5b60208301915083600182028301111561078e5761078d61073c565b5b9250929050565b61079e81610673565b81146107a8575f80fd5b50565b5f813590506107b981610795565b92915050565b5f805f805f606086880312156107d8576107d761054d565b5b5f86013567ffffffffffffffff8111156107f5576107f4610551565b5b61080188828901610740565b95509550506020610814888289016107ab565b935050604086013567ffffffffffffffff81111561083557610834610551565b5b61084188828901610740565b92509250509295509295909350565b5f82825260208201905092915050565b7f426f6f6b6d61726b206e6f7420666f756e6400000000000000000000000000005f82015250565b5f610894601283610850565b915061089f82610860565b602082019050919050565b5f6020820190508181035f8301526108c181610888565b9050919050565b7f4e487b71000000000000000000000000000000000000000000000000000000005f52603260045260245ffd5b7f4e487b71000000000000000000000000000000000000000000000000000000005f52602260045260245ffd5b5f600282049050600182168061093957607f821691505b60208210810361094c5761094b6108f5565b5b50919050565b7f53756d6d617279207072657669657720746f6f206c6f6e6700000000000000005f82015250565b5f610986601883610850565b915061099182610952565b602082019050919050565b5f6020820190508181035f8301526109b38161097a565b9050919050565b7f4e487b71000000000000000000000000000000000000000000000000000000005f52604160045260245ffd5b5f819050815f5260205f209050919050565b5f6020601f8301049050919050565b5f82821b905092915050565b5f60088302610a437fffffffffffffffffffffffffffffffffffffffffffffffffffffffffffffffff82610a08565b610a4d8683610a08565b95508019841693508086168417925050509392505050565b5f819050919050565b5f610a88610a83610a7e8461051c565b610a65565b61051c565b9050919050565b5f819050919050565b610aa183610a6e565b610ab5610aad82610a8f565b848454610a14565b825550505050565b5f90565b610ac9610abd565b610ad4818484610a98565b505050565b5b81811015610af757610aec5f82610ac1565b600181019050610ada565b5050565b601f821115610b3c57610b0d816109e7565b610b16846109f9565b81016020851015610b25578190505b610b39610b31856109f9565b830182610ad9565b50505b505050565b5f82821c905092915050565b5f610b5c5f1984600802610b41565b1980831691505092915050565b5f610b748383610b4d565b9150826002028217905092915050565b610b8d826105e9565b67ffffffffffffffff811115610ba657610ba56109ba565b5b610bb08254610922565b610bbb828285610afb565b5f60209050601f831160018114610bec575f8415610bda578287015190505b610be48582610b69565b865550610c4b565b601f198416610bfa866109e7565b5f5b82811015610c2157848901518255600182019150602085019450602081019050610bfc565b86831015610c3e5784890151610c3a601f891682610b4d565b8355505b6001600288020188555050505b505050505050565b7f4e487b71000000000000000000000000000000000000000000000000000000005f52601160045260245ffd5b5f610c8a8261051c565b9150610c958361051c565b9250828203905081811115610cad57610cac610c53565b5b92915050565b610cbc816105c9565b82525050565b828183375f83830152505050565b5f610cdb8385610850565b9350610ce8838584610cc2565b610cf18361062b565b840190509392505050565b610d0581610673565b82525050565b5f60c082019050610d1e5f83018b610525565b610d2b602083018a610cb3565b8181036040830152610d3e81888a610cd0565b9050610d4d6060830187610cfc565b8181036080830152610d60818587610cd0565b9050610d6f60a0830184610525565b999850505050505050505056fea2646970667358221220d6e57b1cf65857d193bf83d489a8a139c56130fa930f9638778986aa1e962e8964736f6c63430008140033",
  "linkReferences": {},
  "deployedLinkReferences": {},
  "immutableReferences": {},
  "inputSourceName": "project/contracts/BookmarkCT.sol",
  "buildInfoId": "solc-0_8_20-2c98708f54d5a7353066581b76bd3b059f2442df"
}